:100000000C945D000C9485000C9485000C94850084
:100010000C9485000C9485000C9485000C9485004C
:100020000C9485000C9485000C9485000C9485003C
:100030000C9485000C9485000C9485000C9485002C
:100040000C94CE040C9485000C9485000C948500CF
:100050000C9485000C9485000C9485000C9485000C
:100060000C9485000C94850000000008000201003B
:100070000003040700000000000000000000000072
:10008000250028002B0000000000240027002A0083
:10009000040404040404040402020202020203032E
:1000A0000303030301020408102040800102040836
:1000B0001020010204081020FF0711241FBECFEFFB
:1000C000D8E0DEBFCDBF12E0A0E0B1E0E2EEF1E1AA
:1000D00002C005900D92A43BB107D9F723E0A4EB31
:1000E000B2E001C01D92A932B207E1F710E0CDE500
:1000F000D0E004C02197FE010E94E408CC35D1076E
:10010000C9F70E9418050C94EF080C94000090E0C9
:10011000FC01EC55FF4F2491FC01E057FF4F849107
:10012000882399F090E0880F991FFC01EA57FF4F50
:10013000A591B491FC01E458FF4F859194918FB73C
:10014000F894EC91E22BEC938FBF089580E48093B8
:100150007C0080917A00806480937A0080917A009C
:1001600086FDFCCF809178002091790090E0922B61
:100170000895CF92DF92EF92FF920F931F93CF9348
:10018000DF936C017A018B01C0E0D0E0CE15DF0572
:1001900089F0D8016D918D01D601ED91FC9101900E
:1001A000F081E02DC6010995892B11F47E0102C072
:1001B0002196ECCFC701DF91CF911F910F91FF9056
:1001C000EF90DF90CF90089590E0FC01E859FF4F49
:1001D0003491FC01EC55FF4F2491FC01E057FF4F97
:1001E000E491EE2309F43BC0332339F1333091F02D
:1001F00038F43130A9F0323001F584B58F7D12C06A
:10020000373091F03830A1F03430B9F4809180006B
:100210008F7D03C0809180008F77809380000DC018
:1002200084B58F7784BD09C08091B0008F7703C0FB
:100230008091B0008F7D8093B000F0E0EE0FFF1F43
:10024000E458FF4FA591B4918FB7F894EC916111E8
:1002500003C020952E2301C02E2B2C938FBF089511
:100260003FB7F8948091B9029091BA02A091BB0275
:10027000B091BC0226B5A89B05C02F3F19F001968E
:10028000A11DB11D3FBFBA2FA92F982F8827820F1C
:10029000911DA11DB11DBC01CD0142E0660F771F6C
:1002A000881F991F4A95D1F708958F929F92AF9218
:1002B000BF92CF92DF92EF92FF926B017C010E947E
:1002C00030014B015C01C114D104E104F104F1F0EF
:1002D0000E943001DC01CB0188199909AA09BB09E8
:1002E000883E9340A105B10570F321E0C21AD10800
:1002F000E108F10888EE880E83E0981EA11CB11C6D
:10030000C114D104E104F10419F7DDCFFF90EF909F
:10031000DF90CF90BF90AF909F908F900895CF9334
:10032000DF93EC0160E08E810E94E40061E08E8149
:100330000E94E40060E08E810E94E4008BE891E07E
:100340000197F1F7DF91CF910895CF92DF92EF926D
:10035000FF920F931F93CF93DF937C016C0187E093
:10036000C80ED11CC0E0D0E0062F10E0B8010C2E62
:1003700002C0759567950A94E2F76170F601819164
:100380006F010E94E4002196C430D10579F7C701BE
:10039000DF91CF911F910F91FF90EF90DF90CF9061
:1003A0000C948F01CF92DF92EF92FF920F931F93E5
:1003B000CF93DF93EC01F62E642F8C810E94E40032
:1003C0008D818F3F19F060E00E94E4008F850F2D32
:1003D00010E084FF25C06E0187E0C80ED11CE12C1F
:1003E000F12CB8010E2C02C0759567950A94E2F7BE
:1003F0006170F60181916F010E94E400FFEFEF1A36
:10040000FF0A88E0E816F10461F7CE01DF91CF9191
:100410001F910F91FF90EF90DF90CF900C948F0180
:10042000B80184E0759567958A95E1F7CE010E9441
:10043000A5016F2DCE01DF91CF911F910F91FF90FC
:10044000EF90DF90CF900C94A50141E00E94D20183
:1004500081E090E0089540E00C94D201643008F00F
:1004600063E090912403691710F06FEF690FE62F96
:10047000F0E0EF5EFC4F9489682F690F606881E1BE
:1004800093E00C942B0261E00E942B028BE39FE12E
:100490000197F1F70895EF92FF920F931F93CF9377
:1004A000DF93EC01623018F08F8588608F876B8B4B
:1004B0001C8A80E48D8B80E18E8B80E58F8B8C8114
:1004C0000E9487008D818F3F11F00E9487008E81EE
:1004D0000E9487007E0187E0E80EF11C00E010E03A
:1004E0008F8584FD03C084E090E002C088E090E046
:1004F0000817190744F4F70181917F010E948700D2
:100500000F5F1F4FEDCF8BE39DE00197F1F760E0A8
:100510008C810E94E40060E08E810E94E4008D8165
:100520008F3F19F060E00E94E4006F8564FD1DC0FC
:1005300063E0CE010E94A5010BE416E4C801019717
:10054000F1F763E0CE010E94A501C8010197F1F720
:1005500063E0CE010E94A50183E592E00197F1F7E7
:1005600062E0CE010E94A50116C06062CE010E9429
:100570002B028BE496E40197F1F76F856062CE0160
:100580000E942B0283E592E00197F1F76F8560628C
:10059000CE010E942B026F856062CE010E942B0269
:1005A00084E0888B6CE0CE010E942B02CE010E9479
:1005B000430282E0898B66E0CE01DF91CF911F91EB
:1005C0000F91FF90EF900C942B02089580E090E043
:1005D00008954F925F926F927F928F929F92AF9207
:1005E000BF92CF92DF92EF92FF920F931F93CF9320
:1005F000DF938C0128EE33E0DB010E94DD082B0144
:100600003C01E801CC0FDD1FCC0FDD1F2597480111
:10061000880C991C092C000CAA08BB08C12CD12CF1
:100620007601C414D504E604F704CCF461E08CE050
:100630000E94E4000230110518F0CE010197F1F795
:1006400060E08CE00E94E4000230110518F0CE0159
:100650000197F1F7C80CD91CEA1CFB1CE2CFDF9113
:10066000CF911F910F91FF90EF90DF90CF90BF90AF
:10067000AF909F908F907F906F905F904F90089574
:10068000009769F0FC0101900020E9F73197AF0174
:10069000481B590BBC0181E193E00C94B90080E048
:1006A00090E008958F929F92AF92BF920F931F9305
:1006B000CF93DF93CDB7DEB7A1970FB6F894DEBF27
:1006C0000FBECDBF19A2423008F44AE08E010F5D83
:1006D0001F4F842E912CA12CB12CA50194010E94B6
:1006E000AC08E62FB901CA0101501109EA3014F42F
:1006F000E05D01C0E95CD801EC93232B242B252B72
:1007000061F7C8010E944003A1960FB6F894DEBFBE
:100710000FBECDBFDF91CF911F910F91BF90AF90D2
:100720009F908F9008950C9440032F923F924F9288
:100730005F926F927F928F929F92AF92BF92CF9271
:10074000DF92EF92FF920F931F93CF93DF93CDB77A
:10075000DEB768970FB6F894DEBF0FBECDBF60E07E
:1007600080E00E942E0280E691E00E94930368ECF4
:1007700070E080E090E00E94550181E193E00E94EA
:10078000430260E080E00E942E028EE691E00E942B
:10079000930384E4A82E81E0B82E06E211E094E6EB
:1007A000592E28E0422E30E1332E4E0189E1880E89
:1007B000911CF50121905F01F0E22F120FC0F801AA
:1007C00080819181589EB001599E700D1124072E91
:1007D000000C880B990B0E94550131C0F8018081F3
:1007E0009181589E3001599E700C1124EEE0F1E089
:1007F000DE015196842D01900D928A95E1F7E6E194
:10080000F1E0DE011196832D01900D928A95E1F7BA
:10081000CE0141967C01FE0131966F01F701819175
:100820007F01821106C0B301F601808191810E948F
:10083000E902F2E0CF0ED11CE814F90479F761E285
:1008400070E080E090E00E9455010E5F1F4F81E054
:100850000434180709F0ADCF68EC70E080E090E058
:100860000E94550181E193E00E94430210920E0321
:1008700010920D0384EF91E09093050180930401A1
:1008800068960FB6F894DEBF0FBECDBFDF91CF9153
:100890001F910F91FF90EF90DF90CF90BF90AF909E
:1008A0009F908F907F906F905F904F903F902F9090
:1008B00008956130710581059105B9F1C4F4672B84
:1008C000682B692B09F062C061E083E00E942E0270
:1008D0006091090170E080E090E04AE00E945203DC
:1008E000609104017091050181EE98E043C062308F
:1008F00071058105910561F16330710581059105EF
:1009000009F044C061E08CE00E942E026091060173
:1009100070E080E090E04AE00E94520360910401A0
:100920007091050184EA96E025C061E086E00E94AE
:100930002E026091080170E080E090E04AE00E94A1
:100940005203609104017091050180E794E012C0A8
:1009500061E089E00E942E026091070170E080E072
:1009600090E04AE00E9452036091040170910501F9
:100970008BEF94E00E94E90281E193E00E94430240
:100980006EE170E080E090E00E9455016EE170E061
:1009900080E090E00C9455010E94EA081F920F92AB
:1009A0000FB60F9211242F933F938F939F93AF9382
:1009B000BF938091B5029091B602A091B702B09119
:1009C000B8023091B40223E0230F2D3720F40196B2
:1009D000A11DB11D05C026E8230F0296A11DB11D62
:1009E0002093B4028093B5029093B602A093B7020D
:1009F000B093B8028091B9029091BA02A091BB0263
:100A0000B091BC020196A11DB11D8093B9029093D3
:100A1000BA02A093BB02B093BC02BF91AF919F9169
:100A20008F913F912F910F900FBE0F901F901895AF
:100A3000789484B5826084BD84B5816084BD85B5B9
:100A4000826085BD85B5816085BD80916E008160C5
:100A500080936E001092810080918100826080936B
:100A6000810080918100816080938100809180006D
:100A70008160809380008091B10084608093B10098
:100A80008091B00081608093B00080917A00846092
:100A900080937A0080917A00826080937A008091BE
:100AA0007A00816080937A0080917A0080688093D8
:100AB0007A001092C10062E081E193E00E944B0253
:100AC0008CE00E94870060E080E00E942E028CE7AC
:100AD00091E00E94930361E080E00E942E028BE887
:100AE00091E00E9493036CEB72E080E090E00E9442
:100AF000550181E193E00E94430260E080E00E94A2
:100B00002E0288E991E00E94930361E080E00E9458
:100B10002E0284EA91E00E9493036CEB72E080E085
:100B200090E00E94550181E193E00E94430260E061
:100B300080E00E942E028FEA91E00E94930361E020
:100B400080E00E942E028BEB91E00E9493036CEBFD
:100B500072E080E090E00E94550181E193E00E9404
:100B6000430260E080E00E942E0288EC91E00E9447
:100B7000930364EF71E080E090E00E94550181E111
:100B800093E00E9443020E94950332E0432E512CD1
:100B9000612C712C43E0842E912CA12CB12C0E944D
:100BA000A600883E93403CF481E08093100381E1ED
:100BB00093E00E94430290911003913009F007C224
:100BC00080910F03843078F49093090192E0909320
:100BD000080193E09093070194E090930601882325
:100BE00009F475C043C0883058F492E0909309012D
:100BF00093E09093080194E09093070195E033C04F
:100C00008C3058F493E09093090194E0909308019C
:100C100095E09093070196E026C08F3058F494E059
:100C20009093090195E09093080196E09093070155
:100C300097E019C0823158F495E09093090196E04D
:100C40009093080197E09093070198E00CC08431DD
:100C5000C0F496E09093090197E09093080198E022
:100C60009093070199E0909306010BC060E080E04B
:100C70000E942E0287ED91E00E94930361E087E0DD
:100C80000CC08A3098F360E080E00E942E0287ED6D
:100C900091E00E94930361E086E00E942E02609141
:100CA0000F0370E080E090E04AE00E9452036CE2A3
:100CB00071E080E090E00E94550181E193E00E94A4
:100CC00043026CE271E080E090E00E945501C09127
:100CD0000D03D0910E030E946C08CC0FDD1FCC0FCA
:100CE000DD1FC354DD4F24E030E040E050E00E94BF
:100CF0007A08688379838A839B83CDEBD2E07E0177
:100D000000E010E020910D0330910E03021713074D
:100D10005CF4D7016D917D918D919D917D010E9433
:100D200059040F5F1F4FEECF41EF4203C001439FB5
:100D3000900D11248C509E4F9093050180930401D7
:100D40002F5F3F4F30930E0320930D0380910F03CD
:100D50008F5F80930F0301E010E084EF282E33248F
:100D6000339480910D0390910E03081719070CF02E
:100D700027C1C0900001D0900101E0900201F090E5
:100D80000301B5E0CB16D104E104F104C1F50E94E2
:100D9000A600863491054CF48092000190920101E6
:100DA000A0920201B0920301E4CF8732B1E09B0729
:100DB0004CF4409200015092010160920201709245
:100DC0000301D7CF863DE1E09E076CF481E090E01F
:100DD000A0E0B0E08093000190930101A093020194
:100DE000B0930301C6CF8C3B92401CF610920001D9
:100DF000109201011092020110920301BACF688192
:100E000079818A819B816C157D058E059F05C9F5C9
:100E10000E9459040431110509F0C2C060E080E06D
:100E20000E942E0282EE91E00E94930361E080E036
:100E30000E942E0281EF91E00E94930360ED77E023
:100E400080E090E00E94550181E193E00E9443021E
:100E500060E080E00E942E028FEF91E00E949303F9
:100E600061E080E00E942E028EE092E00E949303F7
:100E700068EE73E080E090E00E9455010E949503C7
:100E80008FC080910F03843038F460E083E00E94CB
:100E90002E028EE192E008C0883078F460E083E0B2
:100EA0000E942E0281E392E00E94930361E083E0BE
:100EB0000E942E0287E292E03BC08C3078F460E022
:100EC00083E00E942E028AE392E00E94930361E095
:100ED00083E00E942E0285E492E02AC08F3078F4ED
:100EE00060E083E00E942E0282E592E00E9493037C
:100EF00061E081E00E942E028EE592E019C082310D
:100F000038F460E083E00E942E028DE692E008C093
:100F1000843180F460E081E00E942E0282E892E059
:100F20000E94930361E083E00E942E0287E792E033
:100F30000E9493036CED75E081EC91E10E94E9025F
:100F400068EC70E080E090E00E94550181E193E060
:100F50000E94430210920F0310921003688179815E
:100F60008A819B810E945904688179818A819B8151
:100F70000E945904688179818A819B810E94590469
:100F800060E971E080E090E00E9455010E949503C5
:100F900010920E0310920D0330920501209204016D
:100FA00085E090E0A0E0B0E0809300019093010123
:100FB000A0930201B09303010F5F1F4F2496D1CE7F
:100FC00064E670E080E090E00E94550110C060E0AF
:100FD00080E00E942E0282E992E00E94930361E089
:100FE00080E00E942E0283EA92E00E94930380E058
:100FF00090E0892B09F4D3CD0E940000D0CDE1E12F
:10100000F3E01382128288E591E09183808388E087
:1010100084838FEF858389E0868384E0878385E0FE
:10102000808786E0818787E082871386148615860D
:101030001686178661E0CF010C944B028F929F9227
:10104000AF92BF92CF92DF92EF92FF92CF93DF9356
:10105000EC01688179818A819B8161157105810527
:10106000910521F464E279ED8BE597E02DE133EF12
:1010700041E050E00E947A0849015A019B01AC010D
:10108000A7EAB1E40E9499086B017C01ACEEB4EFD1
:10109000A50194010E94A708DC01CB018C0D9D1DC8
:1010A000AE1DBF1DB7FF03C00197A109B0488883DB
:1010B0009983AA83BB83BC01CD019F77DF91CF9138
:1010C000FF90EF90DF90CF90BF90AF909F908F9068
:1010D00008950E941E0808958AE091E00E941E086B
:1010E000089560930A0170930B0180930C01909313
:1010F0000D010895052E97FB1EF400940E9491089F
:1011000057FD07D00E94AC0807FC03D04EF40C94A6
:10111000910850954095309521953F4F4F4F5F4F27
:10112000089590958095709561957F4F8F4F9F4F53
:1011300008950E94CE08A59F900DB49F900DA49F86
:10114000800D911D11240895B7FF0C9499080E94F9
:101150009908821B930B0895A1E21A2EAA1BBB1BB0
:10116000FD010DC0AA1FBB1FEE1FFF1FA217B30773
:10117000E407F50720F0A21BB30BE40BF50B661F89
:10118000771F881F991F1A9469F76095709580954D
:1011900090959B01AC01BD01CF010895A29FB001C4
:1011A000B39FC001A39F700D811D1124911DB29F9B
:1011B000700D811D1124911D08950E94CE08B7FF66
:1011C0000895821B930B0895EE0FFF1F0590F49175
:1011D000E02D099481E090E0F8940C94EF08F894E5
:0211E000FFCF3F
:1011E20005000000640004030201010000006364C2
:1011F2006566676162437B07A406EF059805FB04F9
:101202007004F603BC0301000100010001000100AB
:1012120001000200010001000100010001000100C3
:1012220002000400636367676161676666656564FF
:1012320064632000000000002502B900E602E50216
:101242002020203120203220203320203400202072
:1012520020352020362020372020380020204D4500
:101262004D4F52494E2047414D4500202020206CD1
:101272006364203136783200202020202020484527
:1012820043484F0020202020202020506F72002051
:101292002020202057616C74657200202020204D90
:1012A2006175726963696F0020204F4B20494E4976
:1012B2004349414D4F530020202020204E4956459E
:1012C2004C00202046656C69636964616465732122
:1012D2000020202020594F552057494E212100201F
:1012E200204C4F204C4F475241535445210020453A
:1012F2004E20484F5241204255454E412100504513
:10130200524449535445004E49204D4F444F2121E8
:10131200002020554A555521210041204C41204DA5
:1013220049544144002047414D45204F56455221E2
:1013320021004A41204A41204A41204A4100454E6B
:10134200204F5452412053455241212100434153E1
:1013520049492E2E2121002047414D45204F564517
:10136200520054414E544F204553465545525A4F10
:101372002100617072696574206375616C717569B1
:101382006572007465636C6120706120696E6963C7
:04139200696172001B
:00000001FF
